:02000000752F5A
:0E000600F201F101F001F801F30100300800F1
:100014007B15FB1F14280130F300F201F101F001FC
:08002400FA0DF20CFF30080098
:08002C00FA1FF2130030080076
:10003400FB14FB1F2428FF30F300F200F100F00052
:08004400FA0DF20CFF30080078
:10004C007408F8027508031C750FF9027608031C76
:10005C00760FFA027708031C770FFB02F30D0730BB
:10006C00FC00730DF80DF90DFA0DFB0D7408731CE3
:10007C004D28F8027508031C750FF9027608031C4D
:10008C00760FFA027708031C770FFB025A28F80741
:10009C0075080318750FF90776080318760FFA0719
:1000AC0077080318770FFB07F30DFC0B3728720D3D
:1000BC00F80DF90DFA0DFB0D7408731C7328F8027A
:1000CC007508031C750FF9027608031C760FFA02EB
:1000DC007708031C770FFB028028F80775080318B4
:1000EC00750FF90776080318760FFA0777080318C7
:1000FC00770FFB07F20D0730FC00720DF80DF90DB0
:10010C00FA0DFB0D7408721C9928F8027508031C73
:10011C00750FF9027608031C760FFA027708031C98
:10012C00770FFB02A628F80775080318750FF90757
:10013C0076080318760FFA0777080318770FFB0772
:10014C00F20DFC0B8328710DF80DF90DFA0DFB0D5A
:10015C007408721CBF28F8027508031C750FF9028D
:10016C007608031C760FFA027708031C770FFB0244
:10017C00CC28F80775080318750FF90776080318CB
:10018C00760FFA0777080318770FFB07F10D073086
:10019C00FC00710DF80DF90DFA0DFB0D7408711CB6
:1001AC00E528F8027508031C750FF9027608031C84
:1001BC00760FFA027708031C770FFB02F228F80778
:1001CC0075080318750FF90776080318760FFA07E8
:1001DC0077080318770FFB07F10DFC0BCF28700D78
:1001EC00F80DF90DFA0DFB0D7408711C0B29F802B2
:1001FC007508031C750FF9027608031C760FFA02BA
:10020C007708031C770FFB021829F80775080318E9
:10021C00750FF90776080318760FFA077708031895
:10022C00770FFB07F00D0730FC00700DF80DF90D82
:10023C00FA0DFB0D7408701C3129F8027508031CAB
:10024C00750FF9027608031C760FFA027708031C67
:10025C00770FFB023E29F80775080318750FF9078D
:10026C0076080318760FFA0777080318770FFB0741
:10027C00F00DFC0B1B29701851297408F807750830
:10028C000318750FF90776080318760FFA07770825
:08029C000318770FFB070800AF
:1002A4007C188829FC1859297C19A7295229A101ED
:1002B4007208031D79297108F2007008F1007808AA
:1002C400F000F801A1157208031D79297108F200E4
:1002D4007008F100F001A11121167208031D79299B
:1002E4007108F200F101A115720803199B29210874
:1002F400F302031D031C9F290310F21B8829F80D28
:10030400F00DF10DF20DF30B7F299F297B1B701C5F
:10031400A329F81FA329F00A0319F10A0319F20A01
:10032400031DA329F20CF10CF00CF30A0319A729FD
:10033400A3290130FC000320AA290230FC000A2072
:10034400AA290430FC001620AA290830FC001A202F
:04035400000008009D
:10035800A1017208031DC1297108F2007008F1009B
:10036800F001A1157208031DC1297108F200F101FD
:10037800A111211672080319CF292108F302031DC0
:10038800031CD3290310F21BD729F00DF10DF20D30
:10039800F30BC729D3290130FC000320DA290230E6
:0E03A800FC000A20DA290430FC0016200800B0
:1003B600FB09FA09F909F809F80A0319F90A0319F0
:0803C600FA0A0319FB0A080002
:1003CE007B14FB1FF229F201FA1FFF30F200F1003D
:0A03DE00F000FA0DF20CFF300800E9
:1003E800831203137408003A031D0F2A7508003A94
:1003F800031D0F2A7608003A031D0F2A7708003AD2
:10040800031D0F2AFF30F000FF30F100FF30F2002B
:100418007F30F300A82A83120313FC01F71BFC0AA0
:10042800FD01FB01FA01F901F80173087204710476
:1004380070040319A32A73087706A000A01BFD09FE
:10044800F71F312AF409F509F609F709F40A03191F
:10045800F50A0319F60A0319F70AF31F3E2AF009E9
:10046800F109F209F309F00A0319F10A0319F20A6A
:100478000319F30A73087704A000A01B5F2A26203B
:10048800FC1B7C2AFD1FA32AF009F109F209F309D4
:10049800F00A0319F10A0319F20A0319F30AF80911
:1004A800F909FA09FB09F80A0319F90A0319FA0AFA
:1004B8000319FB0AA32AF71F762AF31B702A73086D
:1004C800FB007208FA007108F9007008F800F301DF
:1004D800F201F101F001462AF301F201F101F00104
:1004E800F00A0034F309F209F109F009FC17432A6C
:1004F800F80A0319F90A0319FA0A0319FB0A740816
:100508007802031D462A75087902031D462A7608D3
:100518007A02031D462A77087B02031D462AFB013F
:10052800FA01F901F801F00A0319F10A0319F20AAC
:100538000319F30AF31F462AA0012016FF34A0016D
:0A0548007C1CA72ADB21003E0800FE
:10055200C92A013083120313F000F12A4F30F00050
:10056200F12A1230F000F12A0630F000F12A4C3064
:10057200F000F12A2430F000F12A2030F000F12AB4
:100582000F30F000F12AF001F12A0430F000F12AD4
:100592004B08003A0319AA2A4B08013A0319AF2A59
:1005A2004B08023A0319B22A4B08033A0319B52A37
:1005B2004B08043A0319B82A4B08053A0319BB2A17
:1005C2004B08063A0319BE2A4B08073A0319C12AF7
:1005D2004B08083A0319C42A4B08093A0319C62AD8
:0205E20008000F
:1005E40083120313C301C4014408003C031DFC2A05
:1005F4004308783C031CA22B0714871007118711AA
:100604000712871207138713260886000230FC009E
:100614004B30FD00FD0B0C2BFC0B0C2BFF3086002C
:1006240007108714071187110712871207138713FE
:10063400240886000230FC004B30FD00FD0B202B0B
:10064400FC0B202BFF30860007108710071587113D
:100654000712871207138713220886000230FC0052
:100664004B30FD00FD0B342BFC0B342BFF3086008C
:1006740007108710071187150712871207138713AE
:100684002C0886000230FC004B30FD00FD0B482B8B
:10069400FC0B482BFF3086000710871007118711C9
:1006A40007168712071387132A0886000230FC00F6
:1006B4004B30FD00FD0B5C2BFC0B5C2BFF308600EC
:1006C400071087100711871107128716071387135E
:1006D400280886000230FC004B30FD00FD0B702B17
:1006E400FC0B702BFF308600071087100711871151
:1006F40007128712071787133B0886000230FC0095
:100704004B30FD00FD0B842BFC0B842BFF3086004B
:10071400071087100711871107128712071387170D
:10072400390886000230FC004B30FD00FD0B982B8D
:10073400FC0B982BFF308600C30A0319C40AF62A5F
:020744000800AB
:10074600831203137008F8007108F000F101F2013A
:10075600F301FB01FC019630F300FA017008F10089
:0C0766007808F000F801F201AC21080056
:0E077200073083120313FD00FD0BBD2B0800A2
:0E0780008312031346088A0045088200080011
:10078E00831203137008F800FB01FC019E30F30086
:10079E00FA01F201F101F0010230FC0052210800D1
:1007AE0083120313FB017308031D770803192E2C04
:1007BE0072087606FA007708F3077E30031CEB2BDF
:1007CE00F3020318312CEE2BF302031C342C7208A7
:1007DE00F8007108FC007008FD00F817F6170310FA
:1007EE00F201F101F0011830A1007D1C082C7408F3
:1007FE00F00775080318750FF10776080318760FC2
:10080E00F207F20CF10CF00CF80CFC0CFD0C0310C2
:10081E00A10BFC2BF21B182CF80DF00DF10DF20DA7
:10082E00F3037B1B701C2A2CF81F2A2CF00A0319C9
:10083E00F10A0319F20A031D2A2CF20CF10CF00C2A
:10084E00F30A0319312CFA1FF2130030362C013043
:10085E000320362C02301A20362C04300A200000D9
:02086E00080080
:100870008312031372087606A100F801F9017308C8
:100880007702031C5B2C7708FD007308F7007D08D6
:10089000F3007608FD007208F6007D08F200750886
:1008A000FD007108F5007D08F1007408FD00700876
:1008B000F4007D08F00077080319D42C7208FA00C0
:1008C000F217F61777087302F70003198E2C083019
:1008D0007702031C842CF7007408F9007508F400F3
:1008E0007608F500F60108307702031C842CF70027
:1008F0007408F9007508F400F50108307702031C4C
:10090000842C7A08F200D42C770803198E2C03105B
:10091000F60CF50CF40CF90CF70B872CA11F9B2C93
:10092000F909F409F509F609F90A0319F40A031992
:10093000F50A0319F60A7908F80774080318740F02
:10094000F00775080318750FF10776080318760F7E
:10095000F207A11BB42C031CC42CF20CF10CF00CFC
:10096000F80CF30FC42CD02C0318C82CF809F0098C
:10097000F109F209F80A0319F00A0319F10A031937
:10098000F20A8030FA06CC2C0130FC005221D62C21
:100990000230FC005221D62C0430FC00AC21D62CB5
:1009A0000830FC001A20D62C0030FC0000000800A3
:1009B00083120313F801F9011030FC00710DF80DDA
:1009C000F90D7408F8027508031C750FF902031875
:1009D000F02C7408F80775080318750FF907031051
:0A09E000F00DF10DFC0BDE2C0800F9
:1009EA0083120313FB01FC01FA0173080319342D66
:1009FA00F2178E30F302F31B052D0319052D372D3F
:100A0A00F309F30A08307302031C1A2DF300F10DDF
:100A1A007208F100F20108307302031C1A2DF10D5D
:100A2A00F1017308031D0310222D73080319222DE7
:100A3A000310F20CF10CF30B1D2D7B1B711C2C2DDA
:100A4A00031C2C2DF10A0319F20AF21B432DFA1F7B
:100A5A00462DF209F109F10A0319F20A462DF201AB
:100A6A00F101462D7B14FB1F492DF201FA1F492D76
:100A7A00FF30F200F100FA0DF20C492D0130FC00B2
:100A8A004B2D0030FC004B2DFF30FC00FC080319F5
:0E0A9A004F2DE7217108F0007208F1000800EE
:100AA800831203133808003C031D5C2D3708293CCA
:100AB800031C672D7130A6000030A7006230A40027
:100AC8000030A500F22200303802031D6D2D3430AD
:100AD8003702031C782D3830A6000030A70071308B
:100AE800A4000030A500F22200303802031D7E2D3C
:100AF8002A303702031CD32D3808003C031D862DED
:100B08003708333C031CD32D2A303702F00000305D
:100B1800031C013E3802F100A3239A30F4009930F7
:100B2800F5003130F6008230F700D723F52470083D
:100B3800C1007108C2000A30F4000030F500D82462
:100B48007808F0007908F1007008A4007108A50081
:100B58007008CB00A922831203137008A400A50112
:100B68000A30F4000030F5004108F0004208F100B6
:100B7800D8240A30F4000030F500D8247808F000B2
:100B88007908F1007008A6007108A7007008CB006A
:100B9800A922831203137008A600A701F2220800F5
:100BA800831203130108F000C7230030F40000305B
:100BB800F5001030F6008030F700D7237008C70022
:100BC8007108C8007208C9007308CA003F08F0001D
:100BD8004008F100A3234708F4004808F500490835
:100BE800F6004A08F7003824F5247008BF00710899
:100BF800C00003307102031D032EE8307002031C8D
:100C08000A2EBF01C001BD0A0319BE0A0108F0007F
:100C1800C7230030F4000030F5001030F6008030B3
:100C2800F700D7239A30F4009930F5001930F60010
:100C38007F30F700D723F5247008B2007108B3009D
:100C480081010A30F4000030F500D8247808F0005B
:100C58007908F1007008AA007108AB007008CB0091
:100C6800A922831203137008AA00AB010A30F4000A
:100C78000030F5003208F0003308F100D8240A30BB
:100C8800F4000030F500D8247808F0007908F10065
:100C98007008AC007108AD007008CB00A92283125F
:100CA80003137008AC00AD016430F4000030F500A7
:100CB8003208F0003308F100D8240A30F40000307C
:100CC800F500D8247808F0007908F1007008A2002F
:100CD8007108A3007008CB00A922831203137008BF
:080CE800A200A301F2220800A2
:100CF0000A3083120313F4000030F5003D08F000C1
:100D00003E08F100D8247808F0007908F100700856
:100D1000B9007108BA007008CB00A922831203132E
:100D20007008B900BA010A30F4000030F5003D083F
:100D3000F0003E08F100D8240A30F4000030F5003D
:100D4000D8247808F0007908F1007008BB00710819
:100D5000BC007008CB00A922831203137008BB00EB
:100D6000BC016430F4000030F5003D08F0003E089E
:100D7000F100D8240A30F4000030F500D8247808B7
:100D8000F0007908F1007008A8007108A900700847
:100D9000CB00A922831203137008A800A901F22234
:020DA000080049
:100DA200831203133708AE003808AF00B001B10157
:100DB2000A30F400F501F601F7012E08F0002F08C1
:100DC200F1003008F2003108F300F4217808F00055
:100DD2007908F1007A08F2007B08F3007008A40099
:100DE2007108A5007008CB00A922831203137008B2
:100DF200A400A5010A30F400F501F601F7012E085E
:100E0200F0002F08F1003008F2003108F300F4215D
:100E12000A30F400F501F601F701F4217808F00038
:100E22007908F1007A08F2007B08F3007008A60046
:100E32007108A7007008CB00A9228312031370085F
:080E4200A600A701F22208003E
:100E4A00831203133808003C031D2D2F3708283C52
:100E5A00031C3F2F85160630FB001330FC00AD3013
:100E6A00FD00FD0B362FFC0B362FFB0B362F000037
:060E7A00000085120800D3
:100E8000C0238A110A128000840AC50A0319C60AFF
:080E9000F003031D402F0800D0
:100E9800831203139F01C0309F044708F000F00D30
:100EA8007010F00D7010F00D701070089F041F1472
:100EB800B9231F151F1D622F00005E2F1F101E086B
:060EC800F000F10108003A
:100ECE00FF3083120313B400FF30B500FF30B600BD
:0C0EDE00FF309F01C0309F041F1408006B
:100EEA0083160313860187011F30850004309F0093
:100EFA0083129F018B173830831681008312810178
:100F0A00A0308B0005126727B201B301BD01BE01F3
:100F1A00BF01C001B701B8018512C7014C2770088B
:100F2A00B7007108B800B70DB80D37102527051995
:100F3A009F2FD126051DA22F5425D4257826922F1E
:020F4A00A52FD1
:02400E00490067
:00000001FF
